{
  "contractName": "Lottery",
  "abi": [
    {
      "constant": true,
      "inputs": [],
      "name": "manager",
      "outputs": [
        {
          "name": "",
          "type": "address"
        }
      ],
      "payable": false,
      "stateMutability": "view",
      "type": "function"
    },
    {
      "constant": true,
      "inputs": [
        {
          "name": "",
          "type": "uint256"
        }
      ],
      "name": "players",
      "outputs": [
        {
          "name": "",
          "type": "address"
        }
      ],
      "payable": false,
      "stateMutability": "view",
      "type": "function"
    },
    {
      "inputs": [],
      "payable": false,
      "stateMutability": "nonpayable",
      "type": "constructor"
    },
    {
      "constant": false,
      "inputs": [],
      "name": "enterLottery",
      "outputs": [],
      "payable": true,
      "stateMutability": "payable",
      "type": "function"
    },
    {
      "constant": false,
      "inputs": [],
      "name": "pickWinner",
      "outputs": [],
      "payable": false,
      "stateMutability": "nonpayable",
      "type": "function"
    },
    {
      "constant": true,
      "inputs": [],
      "name": "getPlayers",
      "outputs": [
        {
          "name": "",
          "type": "address[]"
        }
      ],
      "payable": false,
      "stateMutability": "view",
      "type": "function"
    }
  ],
  "bytecode": "0x608060405234801561001057600080fd5b50336000806101000a81548173ffffffffffffffffffffffffffffffffffffffff021916908373ffffffffffffffffffffffffffffffffffffffff160217905550610615806100606000396000f30060806040526004361061006d576000357c0100000000000000000000000000000000000000000000000000000000900463ffffffff168063481c6a75146100725780635d495aea146100c95780638b5b9ccc146100e0578063c1af57851461014c578063f71d96cb14610156575b600080fd5b34801561007e57600080fd5b506100876101c3565b604051808273ffffffffffffffffffffffffffffffffffffffff1673ffffffffffffffffffffffffffffffffffffffff16815260200191505060405180910390f35b3480156100d557600080fd5b506100de6101e8565b005b3480156100ec57600080fd5b506100f5610340565b6040518080602001828103825283818151815260200191508051906020019060200280838360005b8381101561013857808201518184015260208101905061011d565b505050509050019250505060405180910390f35b6101546103ce565b005b34801561016257600080fd5b506101816004803603810190808035906020019092919050505061044c565b604051808273ffffffffffffffffffffffffffffffffffffffff1673ffffffffffffffffffffffffffffffffffffffff16815260200191505060405180910390f35b6000809054906101000a900473ffffffffffffffffffffffffffffffffffffffff1681565b60008060009054906101000a900473ffffffffffffffffffffffffffffffffffffffff1673ffffffffffffffffffffffffffffffffffffffff163373ffffffffffffffffffffffffffffffffffffffff1614151561024557600080fd5b60018054905061025361048a565b81151561025c57fe5b06905060018181548110151561026e57fe5b9060005260206000200160009054906101000a900473ffffffffffffffffffffffffffffffffffffffff1673ffffffffffffffffffffffffffffffffffffffff166108fc3073ffffffffffffffffffffffffffffffffffffffff16319081150290604051600060405180830381858888f193505050501580156102f5573d6000803e3d6000fd5b5060006040519080825280602002602001820160405280156103265781602001602082028038833980820191505090505b506001908051906020019061033c92919061051c565b5050565b606060018054806020026020016040519081016040528092919081815260200182805480156103c457602002820191906000526020600020905b8160009054906101000a900473ffffffffffffffffffffffffffffffffffffffff1673ffffffffffffffffffffffffffffffffffffffff168152602001906001019080831161037a575b5050505050905090565b66038d7ea4c6800034101515156103e457600080fd5b60013390806001815401808255809150509060018203906000526020600020016000909192909190916101000a81548173ffffffffffffffffffffffffffffffffffffffff021916908373ffffffffffffffffffffffffffffffffffffffff16021790555050565b60018181548110151561045b57fe5b906000526020600020016000915054906101000a900473ffffffffffffffffffffffffffffffffffffffff1681565b60004442600160405180848152602001838152602001828054801561050457602002820191906000526020600020905b8160009054906101000a900473ffffffffffffffffffffffffffffffffffffffff1673ffffffffffffffffffffffffffffffffffffffff16815260200190600101908083116104ba575b50509350505050604051809103902060019004905090565b828054828255906000526020600020908101928215610595579160200282015b828111156105945782518260006101000a81548173ffffffffffffffffffffffffffffffffffffffff021916908373ffffffffffffffffffffffffffffffffffffffff1602179055509160200191906001019061053c565b5b5090506105a291906105a6565b5090565b6105e691905b808211156105e257600081816101000a81549073ffffffffffffffffffffffffffffffffffffffff0219169055506001016105ac565b5090565b905600a165627a7a72305820d11946caf76b43cdf7249758afbbfc7dce29f1dc17db9798499f24d0da4b01d00029",
  "source": "pragma solidity ^0.4.19;\n\ncontract Lottery {\n  address public manager;\n  address[] public players;\n\n  modifier isOwner() {\n    // only allow manager to call function\n    require(msg.sender == manager);\n    _;\n  }\n\n  function Lottery() public {\n    manager = msg.sender;\n  }\n\n  function enterLottery() public payable {\n    require(msg.value >= 0.001 ether);\n    players.push(msg.sender);\n  }\n\n  function getRandomNumber() private view returns(uint) {\n    // this only gives a pseduo-random number and could be gamed\n    return uint(keccak256(block.difficulty, now, players));\n  }\n\n  function pickWinner() public isOwner {\n\n    // get index of winner using modulo\n    uint winner = getRandomNumber() % players.length;\n    // access index of winner in players array, and send them the winnings\n    players[winner].transfer(this.balance);\n    // reset players array to be an empty dynamic array\n    players = new address[](0);\n  }\n\n  function getPlayers() public view returns(address[]) {\n    return players;\n  }\n}",
  "sourcePath": "/Users/mds/Documents/dapps/lottery-dapp-template/src/ethereum/truffle/contracts/Lottery.sol",
  "compiler": {
    "name": "solc",
    "version": "0.4.23+commit.124ca40d.Emscripten.clang"
  },
  "schemaVersion": "2.0.0",
  "updatedAt": "2018-04-22T15:51:08.650Z"
}